:100000000C9446000C9465000C9465000C946500FB
:100010000C9465000C9465000C9465000C946500CC
:100020000C9465000C9465000C9465000C946500BC
:100030000C9465000C9465000C9465000C946500AC
:100040000C9465000C9465000C9465000C9465009C
:100050000C9465000C9465000C9465000C9465008C
:100060000C9465000C9465000C9465000C9465007C
:100070000C9465000C9465000C9465000C9465006C
:100080000C9465000C9465000C94650011241FBE4F
:10009000CFEFD0E4DEBFCDBF11E0A0E0B1E0E4E7F8
:1000A000F2E000E00BBF02C007900D92AE30B10746
:1000B000D9F721E0AEE0B1E001C01D92AF30B20748
:1000C000E1F70E94A1000C9438010C940000CF933A
:1000D000DF9300D01F92CDB7DEB789837B836A831D
:1000E00089818A3031F48A819B81BC018DE00E9434
:1000F000670080EC90E0FC018081882F90E08072A6
:100100009927892BB1F386EC90E02981FC012083AB
:1001100080E090E00F900F900F90DF91CF910895C5
:10012000CF93DF93CDB7DEB78AE790E02AE730E0E0
:10013000F9012081206EFC0120830000DF91CF9126
:100140000895CF93DF9300D0CDB7DEB781E290E082
:10015000FC01108282E290E02FEFFC01208384E218
:1001600090E02FEFFC01208385E290E0FC011082FB
:100170000E94900088E790E0FC01808191819A8341
:10018000898389819A81C89718F410920E0169C0F9
:1001900089819A81C89748F089819A818937910528
:1001A00020F481E080930E015CC089819A818937B7
:1001B000910548F089819A818A3B910520F483E07A
:1001C00080930E014EC089819A818A3B910548F047
:1001D00089819A818B3F910520F487E080930E01FD
:1001E00040C089819A818B3F910548F089819A812D
:1001F0008C33914020F48FE080930E0132C08981CE
:100200009A818C33914048F089819A818D37914051
:1002100020F48FE180930E0124C089819A818D376B
:10022000914048F089819A818E3B914020F48FE380
:1002300080930E0116C089819A818E3B914048F0CF
:1002400089819A818F3F914020F48FE780930E013E
:1002500008C089819A818F3F914018F08FEF809379
:100260000E0185E290E020910E01FC01208382CFF7
:04027000F894FFCF30
:0E027400000000020000000067000000000013
:00000001FF
